{
  "contractName": "Election",
  "abi": [
    {
      "constant": true,
      "inputs": [],
      "name": "candidatesCount",
      "outputs": [
        {
          "name": "",
          "type": "uint256"
        }
      ],
      "payable": false,
      "stateMutability": "view",
      "type": "function"
    },
    {
      "constant": true,
      "inputs": [
        {
          "name": "",
          "type": "uint256"
        }
      ],
      "name": "candidates",
      "outputs": [
        {
          "name": "id",
          "type": "uint256"
        },
        {
          "name": "name",
          "type": "string"
        },
        {
          "name": "voteCount",
          "type": "uint256"
        }
      ],
      "payable": false,
      "stateMutability": "view",
      "type": "function"
    },
    {
      "constant": true,
      "inputs": [],
      "name": "candidatesCount_p",
      "outputs": [
        {
          "name": "",
          "type": "uint256"
        }
      ],
      "payable": false,
      "stateMutability": "view",
      "type": "function"
    },
    {
      "constant": true,
      "inputs": [
        {
          "name": "",
          "type": "address"
        }
      ],
      "name": "voters",
      "outputs": [
        {
          "name": "",
          "type": "bool"
        }
      ],
      "payable": false,
      "stateMutability": "view",
      "type": "function"
    },
    {
      "constant": true,
      "inputs": [
        {
          "name": "",
          "type": "uint256"
        }
      ],
      "name": "candidates_d",
      "outputs": [
        {
          "name": "id",
          "type": "uint256"
        },
        {
          "name": "name",
          "type": "string"
        },
        {
          "name": "voteCount",
          "type": "uint256"
        }
      ],
      "payable": false,
      "stateMutability": "view",
      "type": "function"
    },
    {
      "constant": true,
      "inputs": [
        {
          "name": "",
          "type": "uint256"
        }
      ],
      "name": "candidates_p",
      "outputs": [
        {
          "name": "id",
          "type": "uint256"
        },
        {
          "name": "name",
          "type": "string"
        },
        {
          "name": "voteCount",
          "type": "uint256"
        }
      ],
      "payable": false,
      "stateMutability": "view",
      "type": "function"
    },
    {
      "constant": true,
      "inputs": [],
      "name": "candidatesCount_d",
      "outputs": [
        {
          "name": "",
          "type": "uint256"
        }
      ],
      "payable": false,
      "stateMutability": "view",
      "type": "function"
    },
    {
      "inputs": [],
      "payable": false,
      "stateMutability": "nonpayable",
      "type": "constructor"
    },
    {
      "anonymous": false,
      "inputs": [
        {
          "indexed": true,
          "name": "_candidateId",
          "type": "uint256"
        }
      ],
      "name": "votedEvent",
      "type": "event"
    },
    {
      "constant": false,
      "inputs": [
        {
          "name": "_candidateId",
          "type": "uint256"
        }
      ],
      "name": "vote",
      "outputs": [],
      "payable": false,
      "stateMutability": "nonpayable",
      "type": "function"
    },
    {
      "constant": false,
      "inputs": [
        {
          "name": "_candidateId",
          "type": "uint256"
        }
      ],
      "name": "vote_p",
      "outputs": [],
      "payable": false,
      "stateMutability": "nonpayable",
      "type": "function"
    },
    {
      "constant": false,
      "inputs": [
        {
          "name": "_candidateId",
          "type": "uint256"
        }
      ],
      "name": "vote_d",
      "outputs": [],
      "payable": false,
      "stateMutability": "nonpayable",
      "type": "function"
    }
  ],
  "bytecode": "0x60806040523480156200001157600080fd5b50620000616040805190810160405280600b81526020017f43616e6469646174652031000000000000000000000000000000000000000000815250620003cc640100000000026401000000009004565b620000b06040805190810160405280600b81526020017f43616e6469646174652032000000000000000000000000000000000000000000815250620003cc640100000000026401000000009004565b620000ff6040805190810160405280600b81526020017f43616e6469646174652033000000000000000000000000000000000000000000815250620003cc640100000000026401000000009004565b6200014e6040805190810160405280600b81526020017f43616e64696461746520310000000000000000000000000000000000000000008152506200044b640100000000026401000000009004565b6200019d6040805190810160405280600b81526020017f43616e64696461746520320000000000000000000000000000000000000000008152506200044b640100000000026401000000009004565b620001ec6040805190810160405280600b81526020017f43616e64696461746520330000000000000000000000000000000000000000008152506200044b640100000000026401000000009004565b6200023b6040805190810160405280600b81526020017f43616e64696461746520340000000000000000000000000000000000000000008152506200044b640100000000026401000000009004565b6200028a6040805190810160405280600b81526020017f43616e6469646174652031000000000000000000000000000000000000000000815250620004ca640100000000026401000000009004565b620002d96040805190810160405280600b81526020017f43616e6469646174652032000000000000000000000000000000000000000000815250620004ca640100000000026401000000009004565b620003286040805190810160405280600b81526020017f43616e6469646174652033000000000000000000000000000000000000000000815250620004ca640100000000026401000000009004565b620003776040805190810160405280600b81526020017f43616e6469646174652034000000000000000000000000000000000000000000815250620004ca640100000000026401000000009004565b620003c66040805190810160405280600b81526020017f43616e6469646174652035000000000000000000000000000000000000000000815250620004ca640100000000026401000000009004565b620005f8565b600460008154809291906001019190505550606060405190810160405280600454815260200182815260200160008152506001600060045481526020019081526020016000206000820151816000015560208201518160010190805190602001906200043a92919062000549565b506040820151816002015590505050565b60056000815480929190600101919050555060606040519081016040528060055481526020018281526020016000815250600260006005548152602001908152602001600020600082015181600001556020820151816001019080519060200190620004b992919062000549565b506040820151816002015590505050565b600660008154809291906001019190505550606060405190810160405280600654815260200182815260200160008152506003600060065481526020019081526020016000206000820151816000015560208201518160010190805190602001906200053892919062000549565b506040820151816002015590505050565b828054600181600116156101000203166002900490600052602060002090601f016020900481019282601f106200058c57805160ff1916838001178555620005bd565b82800160010185558215620005bd579182015b82811115620005bc5782518255916020019190600101906200059f565b5b509050620005cc9190620005d0565b5090565b620005f591905b80821115620005f1576000816000905550600101620005d7565b5090565b90565b610a3280620006086000396000f3006080604052600436106100a4576000357c0100000000000000000000000000000000000000000000000000000000900463ffffffff1680630121b93f146100a95780632d35a8a2146100d65780633477ee2e146101015780634f7d7a85146101b557806369bd61e3146101e2578063a3ec138d1461020d578063a984f10e14610268578063f846b1851461031c578063ff3572d814610349578063ffb562be146103fd575b600080fd5b3480156100b557600080fd5b506100d460048036038101908080359060200190929190505050610428565b005b3480156100e257600080fd5b506100eb61054a565b6040518082815260200191505060405180910390f35b34801561010d57600080fd5b5061012c60048036038101908080359060200190929190505050610550565b6040518084815260200180602001838152602001828103825284818151815260200191508051906020019080838360005b8381101561017857808201518184015260208101905061015d565b50505050905090810190601f1680156101a55780820380516001836020036101000a031916815260200191505b5094505050505060405180910390f35b3480156101c157600080fd5b506101e060048036038101908080359060200190929190505050610612565b005b3480156101ee57600080fd5b506101f7610734565b6040518082815260200191505060405180910390f35b34801561021957600080fd5b5061024e600480360381019080803573ffffffffffffffffffffffffffffffffffffffff16906020019092919050505061073a565b604051808215151515815260200191505060405180910390f35b34801561027457600080fd5b506102936004803603810190808035906020019092919050505061075a565b6040518084815260200180602001838152602001828103825284818151815260200191508051906020019080838360005b838110156102df5780820151818401526020810190506102c4565b50505050905090810190601f16801561030c5780820380516001836020036101000a031916815260200191505b5094505050505060405180910390f35b34801561032857600080fd5b506103476004803603810190808035906020019092919050505061081c565b005b34801561035557600080fd5b506103746004803603810190808035906020019092919050505061093e565b6040518084815260200180602001838152602001828103825284818151815260200191508051906020019080838360005b838110156103c05780820151818401526020810190506103a5565b50505050905090810190601f1680156103ed5780820380516001836020036101000a031916815260200191505b5094505050505060405180910390f35b34801561040957600080fd5b50610412610a00565b6040518082815260200191505060405180910390f35b6000803373ffffffffffffffffffffffffffffffffffffffff1673ffffffffffffffffffffffffffffffffffffffff16815260200190815260200160002060009054906101000a900460ff1615151561048057600080fd5b60008111801561049257506004548111155b151561049d57600080fd5b60016000803373ffffffffffffffffffffffffffffffffffffffff1673ffffffffffffffffffffffffffffffffffffffff16815260200190815260200160002060006101000a81548160ff0219169083151502179055506001600082815260200190815260200160002060020160008154809291906001019190505550807ffff3c900d938d21d0990d786e819f29b8d05c1ef587b462b939609625b684b1660405160405180910390a250565b60045481565b6001602052806000526040600020600091509050806000015490806001018054600181600116156101000203166002900480601f0160208091040260200160405190810160405280929190818152602001828054600181600116156101000203166002900480156106025780601f106105d757610100808354040283529160200191610602565b820191906000526020600020905b8154815290600101906020018083116105e557829003601f168201915b5050505050908060020154905083565b6000803373ffffffffffffffffffffffffffffffffffffffff1673ffffffffffffffffffffffffffffffffffffffff16815260200190815260200160002060009054906101000a900460ff1615151561066a57600080fd5b60008111801561067c57506006548111155b151561068757600080fd5b60016000803373ffffffffffffffffffffffffffffffffffffffff1673ffffffffffffffffffffffffffffffffffffffff16815260200190815260200160002060006101000a81548160ff0219169083151502179055506003600082815260200190815260200160002060020160008154809291906001019190505550807ffff3c900d938d21d0990d786e819f29b8d05c1ef587b462b939609625b684b1660405160405180910390a250565b60055481565b60006020528060005260406000206000915054906101000a900460ff1681565b6003602052806000526040600020600091509050806000015490806001018054600181600116156101000203166002900480601f01602080910402602001604051908101604052809291908181526020018280546001816001161561010002031660029004801561080c5780601f106107e15761010080835404028352916020019161080c565b820191906000526020600020905b8154815290600101906020018083116107ef57829003601f168201915b5050505050908060020154905083565b6000803373ffffffffffffffffffffffffffffffffffffffff1673ffffffffffffffffffffffffffffffffffffffff16815260200190815260200160002060009054906101000a900460ff1615151561087457600080fd5b60008111801561088657506005548111155b151561089157600080fd5b60016000803373ffffffffffffffffffffffffffffffffffffffff1673ffffffffffffffffffffffffffffffffffffffff16815260200190815260200160002060006101000a81548160ff0219169083151502179055506002600082815260200190815260200160002060020160008154809291906001019190505550807ffff3c900d938d21d0990d786e819f29b8d05c1ef587b462b939609625b684b1660405160405180910390a250565b6002602052806000526040600020600091509050806000015490806001018054600181600116156101000203166002900480601f0160208091040260200160405190810160405280929190818152602001828054600181600116156101000203166002900480156109f05780601f106109c5576101008083540402835291602001916109f0565b820191906000526020600020905b8154815290600101906020018083116109d357829003601f168201915b5050505050908060020154905083565b600654815600a165627a7a7230582016e2497a520818145aaf543f19e851d1970372b404e8d561ac6d98ab5fdd8d7a0029",
  "source": "pragma solidity 0.4.25;\n\ncontract Election {\n    // Model a Candidate\n    struct Candidate {\n        uint id;\n        string name;\n        uint voteCount;\n    }\n\n    // Store accounts that have voted\n    mapping(address => bool) public voters;\n    // Store Candidates\n    // Fetch Candidate\n    mapping(uint => Candidate) public candidates;\n    mapping(uint => Candidate) public candidates_p;\n    mapping(uint => Candidate) public candidates_d;\n    // Store Candidates Count\n    uint public candidatesCount;\n    uint public candidatesCount_p;\n    uint public candidatesCount_d;\n\n    // voted event\n    event votedEvent (\n        uint indexed _candidateId\n    );\n\n    constructor () public {\n        addCandidate(\"Candidate 1\");\n        addCandidate(\"Candidate 2\");\n        addCandidate(\"Candidate 3\");\n        addCandidate_p(\"Candidate 1\");\n        addCandidate_p(\"Candidate 2\");\n        addCandidate_p(\"Candidate 3\");\n        addCandidate_p(\"Candidate 4\");\n        addCandidate_d(\"Candidate 1\");\n        addCandidate_d(\"Candidate 2\");\n        addCandidate_d(\"Candidate 3\");\n        addCandidate_d(\"Candidate 4\");\n        addCandidate_d(\"Candidate 5\");\n    }\n\n    function addCandidate (string _name) private {\n        candidatesCount ++;\n        candidates[candidatesCount] = Candidate(candidatesCount, _name, 0);\n    }\n    function addCandidate_p (string _name) private {\n        candidatesCount_p ++;\n        candidates_p[candidatesCount_p] = Candidate(candidatesCount_p, _name, 0);\n    }\n    function addCandidate_d (string _name) private {\n        candidatesCount_d ++;\n        candidates_d[candidatesCount_d] = Candidate(candidatesCount_d, _name, 0);\n    }\n\n    function vote (uint _candidateId) public {\n        // require that they haven't voted before\n        require(!voters[msg.sender]);\n\n        // require a valid candidate\n        require(_candidateId > 0 && _candidateId <= candidatesCount);\n\n        // record that voter has voted\n        voters[msg.sender] = true;\n\n        // update candidate vote Count\n        candidates[_candidateId].voteCount ++;\n\n        // trigger voted event\n        emit votedEvent(_candidateId);\n    }\n    function vote_p (uint _candidateId) public {\n        // require that they haven't voted before\n        require(!voters[msg.sender]);\n\n        // require a valid candidate\n        require(_candidateId > 0 && _candidateId <= candidatesCount_p);\n\n        // record that voter has voted\n        voters[msg.sender] = true;\n\n        // update candidate vote Count\n        candidates_p[_candidateId].voteCount ++;\n\n        // trigger voted event\n        emit votedEvent(_candidateId);\n    }\n    function vote_d (uint _candidateId) public {\n        // require that they haven't voted before\n        require(!voters[msg.sender]);\n\n        // require a valid candidate\n        require(_candidateId > 0 && _candidateId <= candidatesCount_d);\n\n        // record that voter has voted\n        voters[msg.sender] = true;\n\n        // update candidate vote Count\n        candidates_d[_candidateId].voteCount ++;\n\n        // trigger voted event\n        emit votedEvent(_candidateId);\n    }\n}\n",
  "sourcePath": "C:\\Users\\admin\\election\\contracts\\Election.sol",
  "compiler": {
    "name": "solc",
    "version": "0.4.25+commit.59dbf8f1.Emscripten.clang"
  },
  "schemaVersion": "3.1.0",
  "updatedAt": "2020-05-08T23:51:45.540Z",
  "networkType": "ethereum",
  "devdoc": {
    "methods": {}
  },
  "userdoc": {
    "methods": {}
  }
}